:040000008A11FB2F37
:100F6C00831603139F01831203139F121F129F11E9
:100F7C009F131F171F1408000130831603138500DD
:100F8C0086018A11B6278A118312031306120611E1
:100F9C000330A2000830A1007830A000A00BD42FA1
:100FAC00A10BD42FA20BD42F831203131F151F1DBB
:100FBC00E22F06120611DD2F1E08A000A101200849
:100FCC00A3002108A4001E1806161E1C06150230CC
:100FDC00A2000430A100BA30A000A00BF32FA10B8B
:100FEC00F32FA20BF32F0000CA2FA301A40183013E
:040FFC008A11C22F65
:02400E00FAFFB7
:00000001FF
